:040000009BEF08F07A
:100800000053656D2061676974616D656E746F007A
:100810000043656E747269667567616E646F00008F
:1008200032782041676974616D656E746F000043B2
:1008300069636C6F206E6F726D616C00003278209E
:10084000456E78616775650000337820456E786184
:100850006775650000457376617A69616E646F0043
:10086000002B205365636167656D00004167697403
:10087000616E646F0000456E6368656E646F0000B2
:10088000536563616E646F000000056EF00E8116A3
:10089000F00E9316939C939A93988A9C8A9A8A98BE
:1008A0008EEC08F0300E9DEC07F00D0E046EAF0ECE
:1008B000036EB60EE82EFED7032EFCD7042EFAD711
:1008C00000D0300E9DEC07F0030E046E8A0E036E0E
:1008D000560EE82EFED7032EFCD7042EFAD7320E82
:1008E0009DEC07F0D9EC07F00009D8A4FBD7D9ECB0
:1008F00007F00009D8A4FBD705509DEC07F0D9EC10
:1009000007F00009D8A4FBD7080E9DEC07F0D9EC3E
:1009100007F00009D8A4FBD70F0E9DEC07F0D9EC27
:1009200007F00009D8A4FBD7010E9DEC07F0D9EC25
:1009300007F00009D8A4FBD7040E9DEC07F0D9EC12
:1009400007F00009D8A4FBD7800ED5EC06F0120002
:100950000E0E016E0B501AEC07F0000E1A6E0C50C2
:10096000D8A407D01A500E0FD96EDA6ADF50FF0AEA
:1009700005D01A500E0FD96EDA6ADF500D6E010ED7
:100980000D160D50166E176A08C0D9FF09C0DAFFA0
:1009900016C0DFFF08C0D9FF09C0DAFF0A50DF1216
:1009A0000C50D8A407D01A500E0FD96EDA6ADF5057
:1009B000FF0A05D01A500E0FD96EDA6ADF500D6E9D
:1009C000010E0D160D50186E196A08C0D9FF09C026
:1009D000DAFF18C0DFFF1A2A070E1A64C0D7120008
:1009E000010E276E000E286E1BC008F01CC009F017
:1009F0001DC00AF027C00BF0010E0C6EA8EC04F02D
:100A0000275027242712000E236E000E246E000E9E
:100A1000256E000E266E0ED0070E1F6E7D0EE82E80
:100A2000FED71F2EFCD700F0010E2326000E242235
:100A3000252226221EC01FF0206A216A226A1F502A
:100A4000235C205024582150255822502658D8A0E5
:100A5000E3D7282A070E2864C7D71200800E276E16
:100A6000000E286E1BC008F01CC009F01DC00AF063
:100A700027C00BF0010E0C6EA8EC04F0D8902730C4
:100A80002712000E236E000E246E000E256E000E3F
:100A9000266E0ED0070E1F6E7D0EE82EFED71F2E7F
:100AA000FCD700F0010E2326000E24222522262248
:100AB0001EC01FF0206A216A226A1F50235C20504A
:100AC00024582150255822502658D8A0E3D7282A48
:100AD000070E2864C7D71200010E276E000E286E7D
:100AE0001BC008F01CC009F01DC00AF027C00BF0A5
:100AF000000E0C6EA8EC04F0275027242712000EDD
:100B0000236E000E246E000E256E000E266E0ED093
:100B1000070E1F6E7D0EE82EFED71F2EFCD700F0AD
:100B2000010E2326000E2422252226221EC01FF09D
:100B3000206A216A226A1F50235C205024582150C9
:100B4000255822502658D8A0E3D7282A070E286413
:100B5000C7D71200F00E276E000E286E1BC008F0DB
:100B60001CC009F01DC00AF027C00BF0010E0C6E6E
:100B7000A8EC04F0271E000E236E000E246E000E5B
:100B8000256E000E266E0ED0070E1F6E7D0EE82E0F
:100B9000FED71F2EFCD700F0010E2326000E2422C4
:100BA000252226221EC01FF0206A216A226A1F50B9
:100BB000235C205024582150255822502658D8A074
:100BC000E3D7282A010E2864C9D71200AA0E276E7F
:100BD000000E286E1BC008F01CC009F01DC00AF0F2
:100BE00027C00BF0010E0C6EA8EC04F0271E000EBF
:100BF000236E000E246E000E256E000E266E0ED0A3
:100C0000070E1F6E7D0EE82EFED71F2EFCD700F0BC
:100C1000010E2326000E2422252226221EC01FF0AC
:100C2000206A216A226A1F50235C205024582150D8
:100C3000255822502658D8A0E3D7282A010E286428
:100C4000C9D71200750E0518D8B404D0000E086E6E
:100C5000400E03D0000E086E000E076E07C009F0AC
:100C6000000E0A6E1DD0D9EC07F00009D8A4FBD7FE
:100C70000950D5EC06F0D9EC07F00009D8A4FBD751
:100C800004500A24066E06C0F6FF0800F5507EECFC
:100C900007F0D9EC07F00009D8A4FBD7092A0A2AE3
:100CA00004C001F07EEC08F0066E0A50065CD8A085
:100CB0001200D9D7D9EC07F00009D8A4FBD7010E50
:100CC0009DEC07F0D9EC07F00009D8A4FBD7000E83
:100CD000036E000E046E000E056E000E066E070E0B
:100CE000026E7D0EE82EFED7022EFCD700F0010E1C
:100CF0000326000E042205220622065005100410C9
:100D000005E1500E035CD8B01200E9D712006C0E5A
:100D1000046E750E056E22EC06F0000E296E8C0E28
:100D20001B6E0F0E1C6E040E1D6E640E1E6EF0EC1C
:100D300004F08C0E1B6E0F0E1C6E040E1D6E640EE6
:100D40001E6E2EEC05F0292A020E2964E8D78C0EBF
:100D50001B6E0F0E1C6E040E1D6E5AEC08F05AEC42
:100D600006F012003D0E046E750E056E22EC06F0C4
:100D7000200E046E640E056E22EC06F083A61200AF
:100D8000000E2A6E45EC08F011EC08F03CEC07F080
:100D90002A2A010E2A64F6D7000E2B6E87EC06F085
:100DA0002B2A010E2B64FAD71200026EF00E931656
:100DB000F00E811602C001F0800E011201380F0BF7
:100DC0000F0B81128A9C8A9AA9EC08F08A88A9ECF8
:100DD00008F08A98F00E811602500F0B8112A9ECD0
:100DE00008F08A88A9EC08F08A980F0E9312120076
:100DF000A2EC08F083CF2CF083B883AA03D06DEC6B
:100E000008F011D083B883BA03D0B2EC06F00BD04F
:100E100083A883AA03D0F6EC07F005D083A883BA91
:100E200002D0BCEC07F083502C18D8B4E3D75AECAE
:100E300006F0E0D7056E000E076E070E066E055031
:100E4000D8A405D0000E046E000E036E07D005C0B6
:100E500002F0010E02160250036E046A01500624CD
:100E6000D96EDA6A03C0DFFFD89005320606D8A033
:100E7000070607BE1200E3D7110E046E750E056E4D
:100E800022EC06F0000E296E8C0E1B6E0F0E1C6EEF
:100E9000040E1D6E960E1E6EAAEC05F0292A030E96
:100EA0002964F2D78C0E1B6E0F0E1C6E040E1D6E85
:100EB0005AEC08F05AEC06F01200800E046E750E23
:100EC000056E22EC06F0000E296E8C0E1B6E0F0EC6
:100ED0001C6E040E1D6E640E1E6EE6EC05F0292AD3
:100EE000090E2964F2D78C0E1B6E0F0E1C6E040EB9
:100EF0001D6E5AEC08F05AEC06F01200016EF00E6E
:100F00009316F00E811601380F0B0F0B81128A8A8F
:100F10008A9CA9EC08F08A88A9EC08F08A98F00E5F
:100F2000811601500F0B8112A9EC08F08A88A9ECF8
:100F300008F08A980F0E93121200016EF00E9316AD
:100F4000F00E811601380F0B0F0B81128A9C8A9AC2
:100F5000A9EC08F08A88A9EC08F08A98F00E8116AE
:100F600001500F0B8112A9EC08F08A88A9EC08F057
:100F70008A980F0E931212003D0E046E750E056EC8
:100F800022EC06F0610E046E640E056E22EC06F093
:100F900083A61200000E2A6E45EC08F011EC08F052
:100FA0003CEC07F02A2A010E2A64F6D75DEC07F024
:100FB00012008A8C8A9AA9EC08F08A88A9EC08F0B9
:100FC00081A60AD08A98A9EC08F08A88A9EC08F0D2
:100FD0008A988A9C010E12008A98A9EC08F08A88E7
:100FE000A9EC08F08A988A9C000E1200490E046E43
:100FF000750E056E22EC06F0010E046E640E056E91
:1010000022EC06F083A61200000E2A6E45EC08F0D2
:1010100011EC08F03CEC07F02A2A020E2A64F6D7FD
:101020001200550E046E750E056E22EC06F08C0E45
:101030001B6E0F0E1C6E040E1D6E5AEC08F08C0E0B
:101040001B6E0F0E1C6E020E1D6EC80E1E6E6CEC1B
:1010500005F05AEC06F01200280E45EC04F0D9EC2D
:1010600007F00009D8A4FBD7060E9DEC07F0D9ECD9
:1010700007F00009D8A4FBD70C0E9DEC07F0D9ECC3
:1010800007F00009D8B41200FAD75AEC06F0760E31
:10109000046E750E056E22EC06F08C0E1B6E0F0EA4
:1010A0001C6E020E1D6EC80E1E6E2EEC05F05AEC64
:1010B00006F01200000E1E6E1BC008F01CC009F0E6
:1010C0001DC00AF0000E0B6E010E0C6EA8EC04F0B1
:1010D0001E2A070E1E64F0D712002F0E046E750E26
:1010E000056E22EC06F083A6120045EC08F087ECB2
:1010F00006F011EC08F03CEC07F01200000E036E55
:1011000001D0032A01500324026E02C0F6FF08003A
:10111000F5500009D8A4F5D703501200020E026E54
:10112000860E016E990EE82EFED7012EFCD7022EF8
:10113000FAD700F01200000EF86E080EF76E0001EC
:10114000F8EF06F02CEC08F0000E936E380E956E5A
:0A1150001200300EE82EFED7120048
:020000040030CA
:0E000000000C091EFF8180FF0FC00FE00F40B3
:00000001FF
